:020000040800F2
:100000000025002051010008C13B0008EB2F00082B
:1000100000000000000000000000000000000000E0
:10002000000000000000000000000000413E000849
:1000300000000000000000000F0100085D3E000805
:100040006301000863010008630100086301000800
:10005000630100086301000863010008910A0008B9
:1000600063010008630100086301000863010008E0
:1000700063010008093F00086301000863010008EC
:1000800063010008630100086301000863010008C0
:1000900063010008630100086301000863010008B0
:1000A000630100086301000863010008F5480008C7
:1000B00005490008630100086301000863010008A6
:1000C0000448854600F0BEFC004800479D5C0008DF
:1000D000C046C04600250020084B1968086820303B
:1000E00080F30988022080F31488BFF36F8F3FBC30
:1000F000AE4608BC04BC62B618470000A000002051
:10010000EFF3108072B6704780F310887047EFF3FA
:1001100009800E4B1A6820381060F0C044464D46E6
:1001200056465F46F0C008B572B607F00BFC62B6E3
:100130000CBC116808681030F0C8A046A946B24649
:10014000BB4680F309882038F0C81847A00000207B
:100150000448804704480047FEE7FEE7FEE7FEE765
:10016000FEE7FEE7073F0008C100000830B50B4678
:10017000014600202022012409E00D46D5409D4281
:1001800005D31D469540491B254695404019154607
:10019000521E002DF1DC30BDF0B51FB40646002024
:1001A00082B005464024019100901BE0019922464F
:1001B0000F46304600F020F8049A059B801A9941BA
:1001C00010D310461946224600F040FA361A8F41E5
:1001D0000197224601200021009F00F037FA3818CD
:1001E0004D4100902046641E0028DFDC019B0098F2
:1001F0002946324607B0F0BD10B5202A04DB084678
:10020000203AD040002110BD0B46D340D0402024DE
:10021000A21A91400843194610BD03460B439B07A1
:1002200003D009E008C9121F08C0042AFAD203E06B
:100230000B780370401C491C521EF9D27047D2B291
:1002400001E00270401C491EFBD270470022F6E715
:1002500010B513460A4604461946FFF7F0FF20463C
:1002600010BD0321001D401E037812021A43491ECF
:10027000F9D510467047034603220870000A491C4E
:10028000521EFAD518467047F8B502464A40D40FB8
:1002900042004B0052085B089A4202D202460846CE
:1002A00011464A0023D0C30D4A00DDB2120EAD1A2A
:1002B000202D35DA49020126490AF6058A19002C53
:1002C00000D0524220214F1B1146B9402A4110183C
:1002D000C20D9A4221D0002C17D0012D08DCDA057E
:1002E000801AD20F8019D207DBB200F0C7F9F8BD2F
:1002F000DA05801A012340001B06C01880185A42F4
:100300008018CA0F1043490007E04908C20711438B
:10031000DA05801A80194008801800F0A7F9F8BDA6
:1003200061000122511A001BF7E70122D207514058
:10033000AAE70122D2075040A6E7024670B54A401C
:10034000D30FDB0740002DD04A002AD0010E140E37
:10035000000212020919400A520A8418E5010446F3
:100360005443000A120A2E045043A4194219200CC7
:10037000C543AA18120C0125AD03521C52191204D0
:100380007F39240400D0521C104301D44000491E80
:10039000C2B20C06C0092018401C4008802A02D0B6
:1003A00003E0002070BD40084000002900DA002072
:1003B000184370BD70B502464A40D50F40004A0050
:1003C000ED0740085208002814D0002A12D0C40DAE
:1003D000D30D41020120C0055202490A520AE41A13
:1003E000091812187D34914201D3641C00E04900C1
:1003F000002C01DA002070BD0023914201D3891A3C
:100400000343400849000028F7D100290AD091424F
:1004100002D10121C90705E0914201D2012101E089
:100420000121C943E005C018401900F01FF970BD53
:10043000F0B51FB488B00B99099800244840099979
:10044000C00F490049080991C0070B990090490065
:1004500049080B9109990898A64608431CD00B99A6
:100460000A98084318D0099801244000420D48001A
:10047000410D099824050003000B204309900B98B7
:100480000003000B20430B9050181C494018002219
:1004900001901446104605E0002001460DB0F0BD65
:1004A000032801DA034600E003239C46C11A0AAE82
:1004B0000AE05F0008ADED5B4F00F75B7D4300276E
:1004C000AA187C41491C5B1E6145F2DD410004AB6A
:1004D0005A522104120C0A43240C401C0828DFDB6A
:1004E000019802900099704601910090059B049A32
:1004F0000799069800F008F9D0E700000DFCFFFF0F
:10050000C217C10F504010B54018CA0796230021EA
:1005100000F0B4F810BD10B500229623114600F08B
:10052000ADF810BD0EB505490291002100910A46B3
:100530000B46019100F0E8F803B000BD3304000061
:10054000C20F410040020123400ADB05D207090E19
:10055000C0187F2901DA00207047962903DC962312
:10056000591AC84001E096398840002AF4D0404228
:100570007047410040020122400AD205090E80184E
:100580007F2901DA00207047962903DC9622511A50
:10059000C8407047963988407047C20FD207400064
:1005A00040080BD0C10D0723DB01C9184002090523
:1005B000400A1143C208400711437047002001461A
:1005C0007047000010B5002904DB0124E407404215
:1005D0008C412146002B04DB1C460123DB075242E1
:1005E000A341994200D1904210BD0000CB0FDB0720
:1005F000490010B5490802460A4307D00A0D0724EE
:100600000903E401090B121B002A01DC002010BDC4
:10061000C900440F0C43C100E018D205801800F057
:1006200025F810BD0122D207002800DB101A00298E
:1006300000DB511A814270470122D207002800DBFB
:10064000101A002900DB511A8842704710B5202A81
:1006500004DB0146203A9140002010BD9140202348
:100660009C1A0346E3401943904010BD002904DA68
:10067000401C490001D140084000704770B400247C
:10068000050C05D11024000402D1002921D0112429
:10069000050E01D100020834050F01D10001241D0F
:1006A000850F01D18000A41C002801DB4000641CE0
:1006B000002908D020252E1B0D46F540A14000D072
:1006C00001212943084301061B1B000ADB1D02D53B
:1006D000002070BC7047DB05181880180029F8DA74
:1006E000401C4900F5D170BC40084000704710B56F
:1006F000002B08DA0024401C614192185B411A4328
:1007000001D14008400010BDF0B51FB482B00546CD
:100710000C0003D0084604F095F902E004F092F9C9
:1007200020300246009021462846FFF78FFF049BA9
:10073000059A04460F4618431143084314D018463F
:1007400010431BD0009840210A1A18460599FFF75C
:1007500053FD05460E46009A05990498FFF776FF6B
:10076000084305D0012004E02046394607B0F0BD1B
:100770000020C11705430E432C43374300990E98C0
:100780006305401A7905E40A00220C43FD0A0A3089
:1007900002D500200146E9E70105101969410C9CCA
:1007A0000D9D00196941FFF7A2FFDFE7F0B507468D
:1007B0000846584087B0C00F049048000E465900C4
:1007C00040084908BC1A884105D2384631461E46C1
:1007D00017460B4602465800400810434DD0300DD6
:1007E000039040055900400D490D0590401A0290B4
:1007F000402873DA18030121000B09050843019012
:1008000004980092002806D01146019A494200201F
:10081000904100910190029840210A1A0199009894
:10082000FFF714FF05460C466B4607CB00F01CF99A
:10083000C0197141039A0E0D0023D71756401A466E
:100840007A40164344D0049A002A2DD0029A012AF5
:10085000039A15DC1205C01A914101263605001CC9
:100860007141D20F059ED2070093019202962A464B
:100870002346FFF749FF07B0F0BD38463146FAE797
:100880001605234A0F46B218C01AB74101210905BF
:10089000001C4F4100187F41114618187941E20FA2
:1008A00010436D19644113E0E2076D0815436408B5
:1008B000C2071443039A01261205C01A9141360556
:1008C000001C7141CE07400830434908C01851410F
:1008D0002A462346FFF70BFFCDE7FFE704980122E6
:1008E0004000C117121A00238B4104983146C417E7
:1008F000381AA141EEE730B40124E407634030BC6C
:1009000054E730B40124E407614030BC4EE70000F6
:100910000000E0FFF0B50C465C4085B0E40FE40752
:1009200003944C0000266408590094464908024686
:100930000296224321D062460A431ED06200570D20
:100940004A000E032303550D012402462C492405B9
:10095000781B1B0B360B401823432643614600903F
:100960001C46501AB44103D30098401C009002E08A
:10097000921800985B41002803DA0020014605B078
:10098000F0BD0020012109050746864611E06446B6
:100990001D46141BB54106D36546521BB341744630
:1009A00007430C43A646CD07400849082843921840
:1009B0005B4105460D43EAD11046184313D060460B
:1009C000194650407140084306D06046101AB341A2
:1009D00006D20122002306E000220123DB0702E009
:1009E0000122D2435310009874460105381C61411E
:1009F000029C039D00196941FFF779FEBFE70000E3
:100A0000FD0300004A0009030123090B1B051943DC
:100A10000A4B10B5520D9A4202DA0020014610BD71
:100A2000064B34339A4203DC9A1AFFF7E5FB10BDFC
:100A3000034BD218FFF70AFE10BD0000FF030000B1
:100A4000CDFBFFFF064C0125064E05E0E36807CC11
:100A50002B430C3C98471034B442F7D3FFF734FBD8
:100A60004C8500086C85000810B5202A06DBCB17E2
:100A70000846203A1041C1170B4306E00B461341CC
:100A8000D0402024A21A91400843194610BD00000E
:100A900010B5012002490870800300F073F810BD02
:100AA0000100002072B600BFFEE701462120405C35
:100AB000022808D00420886300BF0022202042546E
:100AC00000BF01207047086800680E2290430A6842
:100AD000106008680068400840000A681060012043
:100AE0000A6C9040CA6B506001222120425400BF22
:100AF00000222020425400BF0020E3E770B50446E6
:100B000000252120005D022803D00420A0630125D8
:100B10001EE0206800680E21884321680860206874
:100B2000006840084000216808600120216C88406E
:100B3000E16B486001212120015500BF00212020E8
:100B4000015500BF606B002802D02046616B8847CA
:100B5000284670BD70B5044600F028F906462546C3
:100B6000681C002802D0054800782D1800BF00F04E
:100B70001DF9801BA842FAD370BD00005000002070
:100B80007047000010B50446054840692040002821
:100B900004D0034844612046FFF7F2FF10BD000077
:100BA0000004014078B503460A460021E4E001262E
:100BB0008E4014683440002C7ED01579AD07AD0FFF
:100BC000012D04D01579AD07AD0F022D18D198680D
:100BD0004E000325B5400646AE4330464E00D5686C
:100BE000B54028439860586801258D400646AE43BD
:100BF00030461026556835402D098D4028435860F1
:100C00001579AD07AD0F032D0BD0D8684E00032525
:100C1000B5400646AE4330464E009568B540284381
:100C2000D8601579AD07AD0F022D15D1CD08AE00F6
:100C30001D462035A8594D07EE0E0F25B540064636
:100C4000AE4330464E07F60E1569B5402843CD0831
:100C5000AD001E462036705118684E000325B54081
:100C60000646AE4330461579AD07AD0F4E00B54090
:100C7000284318600326360455683540002D7AD085
:100C800000BF404DAD69012635433E4EB561354646
:100C9000AD69ED07ED0F009500BF00BF3A4D8E081E
:100CA000B600A8598D072E0F0F25B5400646AE4356
:100CB00030460925ED0600E05DE0AB4201D100259C
:100CC00014E0324DAB4201D101250FE0304DAB4273
:100CD00001D102250AE02F4DAB4201D1032505E0E9
:100CE0002D4DAB4201D1042500E005258E07360FBE
:100CF000B5402843244D8E08B600A851274DA8685A
:100D00000546A54328460126360555683540002D81
:100D100002D0054625432846204DA860E8680546D0
:100D2000A54328460126760555683540002D02D09A
:100D3000054625432846194DE86068680546A543E1
:100D400028460126760455683540002D02D0054618
:100D500025432846114D686028680546A543284666
:100D60000126360455683540002D02D0054625433E
:100D700028460A4D2860491C1568CD40002D00D03A
:100D800015E778BD0010024008000140000400484B
:100D900000080048000C0048001000480004014012
:100DA000002A01D0816100E081627047014800683B
:100DB000704700004800002002464120805C202847
:100DC0002FD100BF4020805C012801D10220704754
:100DD00001234020835400BF242341208354106802
:100DE000006840084000136818601068006801231C
:100DF0001B03984313681860106800680843136861
:100E000018601068006801231843136818602023D5
:100E10004120835400BF00234020835400BF0020A2
:100E2000D5E70220D3E710B502460B464120805C8F
:100E300020282ED100BF4020805C012801D1022053
:100E400010BD01244020845400BF24244120845438
:100E5000106800684008400014682060106801684D
:100E60000F2424020846A0430146180201431068DB
:100E70000160106800680124204314682060202469
:100E80004120845400BF00244020845400BF00202F
:100E9000D6E70220D4E7000010B50446002C01D1AB
:100EA000012010BD4120005D002805D10021402017
:100EB0000155204600F09CFB24214120015520686B
:100EC000006840084000216808600F21090660683A
:100ED000884321680861206880680121C90388432C
:100EE00021688860E068012806D10121C903A06853
:100EF00008432168886005E021218902A068084331
:100F000021688860E068022807D1206840680121D4
:100F1000C90208432168486006E020684068012152
:100F2000C902884321684860206840681449084322
:100F3000216848602068C0680121C903884321688E
:100F4000C860616920690843A169090208432168F2
:100F5000C860216AE0690843216808602068006869
:100F6000012108432168086000206064202141209D
:100F7000015500202063002142200155002090E708
:100F800000800002FFB585B004460F461E460020D3
:100F900004904120005D20287ED1206880690121D5
:100FA000C9030840C00B002802D0022009B0F0BDE0
:100FB00000BF4020005D012801D10220F6E7012199
:100FC0004020015500BF24214120015500206064CC
:100FD00000BFE068012809D1B805800D012149034F
:100FE000401809034018C91388430AE0B805800D6A
:100FF0000121C90240188900401809034018C9138B
:10100000884321684860FFF7D1FE05462068806963
:101010002021084040090390206880691021084081
:101020000009029022E0701C002813D0FFF7BEFEDA
:10103000401BB04201D8002E0CD120214120015587
:10104000606C0843606400BF00214020015500BF70
:101050000120ABE720688069202108404009039007
:101060002068806910210840000902900398002838
:1010700002D102980028D6D020688069102108404B
:101080000009002819D1334600222021204600956E
:1010900002F012F9002800E035E001D0012085E7D8
:1010A00020202168C86120214120015500BF002176
:1010B0004020015500BF002078E733460022202160
:1010C0002046009502F0F8F8002801D001206DE7D5
:1010D00010202168C86120202168C8610498401C44
:1010E000049004990798814200D272E720214120A0
:1010F0000155606C0843606400BF00214020015529
:1011000000BF012052E7022050E70000FFB581B088
:10111000044617464120005D20287DD100BF4020B5
:10112000005D012802D1022005B0F0BD0121402060
:10113000015500BFFFF73AFE054619230122D103EE
:101140002046009502F0B8F8002801D00120EBE716
:1011500021214120015510214220015500206064C9
:1011600067620498608500206063608DFF2803D962
:10117000FF2020850E0503E0608D20850126760680
:10118000208D002817D0606A007821688862606A24
:10119000401C6062608D401E6085208D401E208551
:1011A0003D480090208D401CC2B233462046029933
:1011B00002F064F808E038480090208DC2B233464F
:1011C0002046029902F05AF843E02A4620460A993E
:1011D00002F0E4F8002801D00120A5E7606A007859
:1011E00021688862606A401C6062608D401E608574
:1011F000208D401E2085608D00282AD0208D00285B
:1012000027D100950022802120460A9B02F054F845
:10121000002802D0012087E73CE0608DFF280CD930
:10122000FF20208500200090208DC2B201231B06E4
:101230002046029902F022F80BE0608D2085002004
:101240000090208DC2B201235B062046029902F075
:1012500015F8608D0028B8D12A4620460A9902F078
:101260006AF8002801D001205EE720202168C861CB
:1012700020684068094908402168486020214120D1
:10128000015500214220015500BF4020015500BFFB
:10129000002049E7022047E70020008000E800FE28
:1012A000FFB583B004460C9F0E9E4120005D2028B0
:1012B0007ED1002F02D00D98002805D101204002D8
:1012C0006064012007B0F0BD00BF4020005D012830
:1012D00001D10220F6E701214020015500BFFFF7B0
:1012E00065FD054619230122D1032046009501F032
:1012F000E3FF002801D00120E4E72221412001552D
:101300004021422001550020606467620D9860858D
:101310000020606300960195204604A90EC901F0E3
:101320002DFF002806D000BF00214020015500BF3E
:101330000120C7E7608DFF280CD901202085414896
:101340000090208DC2B201231B062046049901F0B3
:1013500095FF0BE0608D20853A480090208DC2B249
:1013600001235B062046049901F088FF00BF334645
:10137000002204212046009501F09EFF002801D0A4
:1013800001209FE72068406A616A0870606A401C1B
:101390006062208D401E2085608D401E6085608DBE
:1013A00000282BD0208D002828D13346002200E0D1
:1013B00045E080212046009501F07EFF002801D005
:1013C00001207FE7608DFF280CD9012020850020B7
:1013D0000090208DC2B201231B062046049901F023
:1013E0004DFF0BE0608D208500200090208DC2B263
:1013F00001235B062046049901F040FF608D002820
:10140000B5D12A463146204601F095FF002801D08B
:10141000012057E720202168C861206840680A49F8
:1014200008402168486020214120015500214220C8
:10143000015500BF4020015500BF002042E70220B7
:1014400040E700000024008000E800FEFFB583B004
:1014500004460C9F0E9E4120005D20287ED1002F67
:1014600002D00D98002805D10120400260640120BF
:1014700007B0F0BD00BF4020005D012801D102206F
:10148000F6E701214020015500BFFFF78FFC05461C
:1014900019230122D1032046009501F00DFF0028F9
:1014A00001D00120E4E721214120015540214220C3
:1014B00001550020606467620D98608500206063BC
:1014C00000960195204604A90EC901F097FE002858
:1014D00006D000BF00214020015500BF0120C7E712
:1014E000608DFF280CD9FF20208500200090208DE2
:1014F000C2B201231B062046049901F0BFFE0BE097
:10150000608D208500200090208DC2B201235B06F3
:101510002046049901F0B2FE00BF2A46314620461B
:1015200001F03CFF002801D00120A1E7606A0078AB
:1015300021688862606A401C6062608D401E608520
:10154000208D401E2085608D00282BD0208D002806
:1015500028D1334600228021204600E043E0009558
:1015600001F0AAFE002801D0012081E7608DFF284C
:101570000CD9FF20208500200090208DC2B20123CD
:101580001B062046049901F079FE0BE0608D208552
:1015900000200090208DC2B201235B0620460499F2
:1015A00001F06CFE608D0028B7D12A4631462046F6
:1015B00001F0C1FE002801D0012059E72020216858
:1015C000C8612068406809490840216848602021B6
:1015D0004120015500214220015500BF4020015506
:1015E00000BF002044E7022042E7000000E800FEC0
:1015F00010B586B00446142101A8FEF727FE1A494B
:10160000206888422DD100BF184840690121890413
:101610000843164948610846406901218904084089
:10162000009000BF00BFC020019012200290002057
:101630000390032004900120059001A90C48FFF7B6
:10164000B1FA00BF0948C0690121490508430749AB
:10165000C8610846C069012149050840009000BFE3
:1016600000BF06B010BD0000005400400010024052
:1016700000040048034800680349097840180149FC
:1016800008607047480000205000002010B5064850
:1016900000681021084304490860032000F006F8A0
:1016A00000F064F8002010BD00200240F0B587B0C3
:1016B000044600270020029000BF264880690121CF
:1016C000C90208432349886108468069C914084053
:1016D000009000BF00BF01A903A800F019FA069FFF
:1016E000002F03D100F036FA064602E000F032FA8D
:1016F000460019493046FEF739FD401E0290174852
:101700001749086017491648C16015490298486092
:101710000021134801618160816100F0BAFF054634
:10172000002D13D10E4800F0E7FF0546002D0DD126
:101730000D2000F041F8042C07D2002221460D2094
:1017400000F048F80848046000E00125284607B08A
:10175000F0BD00000010024040420F00002C01408C
:101760004C040020E70300004C00002008B500BF37
:1017700010488069012108430E4988610846806944
:10178000C007C00F009000BF00BF00BF0846C0697F
:10179000090408430749C8610846C06909040840AC
:1017A000009000BF00BF00220321481F00F012F884
:1017B00008BD0000001002400146002905DBCB06F1
:1017C000DB0E01229A40024B1A6000BF70470000F6
:1017D00000E100E070B504460D4616462946204655
:1017E00003F06EF970BD0000F8B504460026002530
:1017F000012109042068084088427AD10027604806
:10180000C0690903084000280DD100BF5C48C069C9
:1018100008435B49C8610846C06909040840009054
:1018200000BF00BF012757480068FF210131084071
:10183000002816D153480068084352490860FFF752
:10184000B5FA064606E0FFF7B1FA801B642801D915
:101850000320F8BD4B480068FF21013108400028F3
:10186000F1D04748006A0321090208400546002DCF
:101870002DD060680840A84229D04148006A8843BA
:1018800005463F48006A0121090408433C490862B3
:101890000846006A0121090488433949086208465C
:1018A0000562E807C00F002811D0FFF77FFA06464F
:1018B00007E0FFF77BFA801B3349884201D90320F8
:1018C000C7E72F48006A022108400028F1D02C48C1
:1018D000006A0321090288436168084328490862B5
:1018E000012F05D10846C069090488432449C8610D
:1018F00000BF2078C007C00F002807D02048006B29
:1019000080088000A16808431D49086302212068FF
:101910000840022808D11A48006B032109048843B3
:10192000E168084316490863202120680840202800
:1019300007D11348006B10218843216908431049DF
:1019400008630121490420680840884207D10C48F7
:10195000006B80218843A16908430949086301217C
:10196000890220680840884207D10548006B402161
:1019700088436169084302490863002069E7000061
:1019800000100240007000408813000070B504464B
:101990000D46002C01D1012070BD58480068C007D9
:1019A000C00FA8420ED255480068400840002843A6
:1019B0005249086008460068C007C00FA84201D01D
:1019C0000120E9E7022120680840022814D10421FF
:1019D00020680840042807D14948406807210902C7
:1019E000884340184649486045484068F02188438C
:1019F000A1680843424948602078C007C00F00280A
:101A000047D06068012808D13D4800680121490499
:101A10000840002821D10120BEE76068022808D1D3
:101A200037480068012149060840002815D10120E7
:101A3000B2E76068032808D13148406B01214904AE
:101A40000840002809D10120A6E72D48006802219E
:101A50000840002801D101209EE7294840688008FD
:101A600080006168084326494860FFF79FF90646F1
:101A700007E0FFF79BF9801B2249884201D9032028
:101A80008AE71F4840680C21084061688900884245
:101A9000EFD11A480068C007C00FA8420ED91748F6
:101AA0000068400840002843144908600846006860
:101AB000C007C00FA84201D001206DE704212068B3
:101AC0000840042808D10E484068072109028843CD
:101AD000E16808430A49486000F04EF8084949683F
:101AE000F02211400909084A515CC84007490860C2
:101AF0000320FFF7DBFD00204EE70000002002403E
:101B00000010024088130000FC84000854000020EC
:101B1000072202600A4A52689207920F4260084AFE
:101B20005268F0231A408260054A526807231B025C
:101B30001A40C260034A1268D207D20F0A60704787
:101B40000010024000200240014800687047000079
:101B50005400002000B5FFF7F7FF05494968072248
:101B600012021140090A034A515CC84000BD00003E
:101B7000001002400C850008F8B50025002400275D
:101B80000026002000902B4845680C2028400028A3
:101B900049D0042804D0082805D00C2842D13EE0C2
:101BA0002548009042E00F2080042840800C234903
:101BB0000E5C2048C06A0007000F21490C5C03201E
:101BC000C00328400121090488420AD1224600238B
:101BD00019481946FEF7E0FA314602F04AFF074677
:101BE0001BE00320C00328400321C90388420AD117
:101BF0002246002313481946FEF7CEFA314602F07A
:101C000038FF074609E0224600230B481946FEF735
:101C1000C3FA314602F02DFF0746009706E0094857
:101C2000009003E000BF0448009000BF00BF009890
:101C3000F8BD00000010024000127A00DC840008A9
:101C4000EC840008006CDC02FEB50446002C01D1D7
:101C50000120FEBD2078C007C00F002872D0FC48CC
:101C600040680C21084004280CD0F948406808401E
:101C7000082813D1F64840684903084001210904A7
:101C800088420BD1F248006801214904084000282D
:101C90006BD06068002868D10120DAE700BF606877
:101CA000012807D1EA480068012109040843E849EE
:101CB000086031E0606800280ED1E5480068012125
:101CC00009048843E2490860084600680121890444
:101CD0008843DF4908601FE0606805280ED1DC48B2
:101CE0000068012189040843D94908600846006852
:101CF000012109040843D64908600DE0D448006872
:101D0000012109048843D24908600846006801217E
:101D100089048843CE49086000BF6068002812D05B
:101D2000FFF744F8054606E0FFF740F8401B64283B
:101D300001D903208DE7C648006801214904084005
:101D40000028F1D011E0FFF731F8054606E0FFF773
:101D50002DF8401B642801D903207AE7BC480068AD
:101D60000121490408400028F1D1022120680840DF
:101D7000022862D1B64840680C21084000280CD0E7
:101D8000B3484068084008281CD1B148406849035E
:101D900008400121C903884214D1AD4800680221DE
:101DA0000840002804D0E068012801D0012050E755
:101DB000A7480068F82188432169C9000843A4495D
:101DC00008603AE0E068002820D0A14800680121BE
:101DD00008439F490860FEF7E9FF054606E0FEF765
:101DE000E5FF401B022801D9032032E7984800682C
:101DF000022108400028F2D095480068F821884365
:101E00002169C90008439249086016E090480068BB
:101E1000400840008E490860FEF7C8FF054606E00E
:101E2000FEF7C4FF401B022801D9032011E78848B0
:101E30000068022108400028F2D1082120680840EB
:101E4000082831D1E069002817D08148406A012173
:101E500008437F494862FEF7A9FF054606E0FEF702
:101E6000A5FF401B022801D90320F2E67848406A0A
:101E7000022108400028F2D016E07548406A400868
:101E8000400073494862FEF791FF054606E0FEF701
:101E90008DFF401B022801D90320DAE66C48406A16
:101EA000022108400028F2D10421206808400428BB
:101EB00072D1002001906648C06989060840002858
:101EC0000ED100BF6248C06908436149C861084635
:101ED000C06909040840009000BF00BF01200190C4
:101EE0005C480068FF2101310840002816D159489C
:101EF0000068084357490860FEF758FF054606E0AA
:101F0000FEF754FF401B642801D90320A1E6514885
:101F10000068FF21013108400028F1D000BFA0680F
:101F2000012806D14A48006A01210843484908624D
:101F30002AE0A06800280BD14548006A4108490002
:101F400043480162006A04218843414908621BE05A
:101F5000A06805280CD13E48006A042108433C498A
:101F600008620846006A01210843394908620BE00B
:101F70003748006A40084000354908620846006A50
:101F8000042188433249086200BFA068002813D0AA
:101F9000FEF70CFF054608E02BE0FEF707FF401BAD
:101FA0002D49884201D9032053E62948006A0221BD
:101FB00008400028F1D011E0FEF7F8FE054607E0E2
:101FC000FEF7F4FE411B2448814201D9032040E67C
:101FD0001F48006A022108400028F1D10198012819
:101FE00006D11B48C0690121090788431849C86107
:101FF00000BF10212068084010285FD160690128C7
:102000002CD11348406B042108431149486308460A
:10201000406B012108430E494863FEF7C7FE0546A1
:1020200006E0FEF7C3FE401B022801D9032010E69C
:102030000748406B022108400028F2D00448406B5A
:10204000F8218843A169C90008430149486335E084
:102050000010024000700040881300006069401DBD
:1020600000280FD18648406B042188438449486387
:102070000846406BF8218843A169C900084380499C
:1020800048631BE07E48406B042108437C49486359
:102090000846406B400840004863FEF787FE05464F
:1020A00006E0FEF783FE401B022801D90320D0E59D
:1020B0007348406B022108400028F2D1202120689B
:1020C0000840202852D16E4840680C2108400C2856
:1020D0000AD06B4840680840082811D16848406819
:1020E0004903084088420BD16548406B01214904EF
:1020F000084000283AD0206A012837D00120A8E5FE
:10210000206A002819D05E48406B01210904084369
:102110005B494863FEF74AFE054606E0FEF746FEC9
:10212000401B022801D9032093E55548406B01214B
:10213000490408400028F1D018E05148406B0121C3
:10214000090488434E494863FEF730FE054606E021
:10215000FEF72CFE401B022801D9032079E54848F0
:10216000406B0121490408400028F1D1606A002831
:102170004FD0434840680C210840082864D0606A6A
:10218000022847D13E4800680121090688433C499E
:102190000860FEF70BFE054606E0FEF707FE401B53
:1021A000022801D9032054E5354800680121490679
:1021B00008400028F1D100BF3148C06A0009000181
:1021C000216B08432E49C862A16AE06A08432C4982
:1021D00049687B22D203914308432949486000BFE4
:1021E0000846006801210906084325490860FEF7F2
:1021F000DDFD054606E0FEF7D9FD401B022801D9AA
:10220000032026E51E4800680121490608400028F1
:10221000F1D033E01A4800680121090688431849C3
:102220000860FEF7C3FD054606E0FEF7BFFD401B54
:10223000022801D903200CE5114800680121490654
:1022400008400028F1D119E0606A012800D100E5BA
:102250000B484668C76A0320C0033040A16A884221
:102260000AD13907090F206B814205D10F20800464
:102270003040E16A884201D00120EAE40020E8E42D
:102280000010024070B50446002C01D1012070BD41
:10229000606A002808D1FF2105316068884200D1BA
:1022A00005E00021E16102E000212161616100217E
:1022B000A1625D20005D002804D15C20015520460C
:1022C00000F066F802215D20015520680068402179
:1022D00088432168086007210902E068884201D923
:1022E000002501E001252D030F210902E068884245
:1022F00006D007210902E068884201D00021A162CE
:10230000FF2105316068084021229202A168114036
:1023100008430222216911400843217DC907C90FE2
:1023200008431202A169114008433822E1691140B3
:1023300008438022216A114008439201A16A11409A
:10234000084321680860A069000C0421084010229D
:10235000616A114008430822616B114008430F2253
:102360001202E16811400843012109032940084392
:10237000216848602068C0690121C902884321683A
:10238000C8610020206601215D20015500207EE704
:1023900010B586B00446142101A8FDF757FF19496E
:1023A000206888422BD100BF1748806989140843F0
:1023B000154988610846806989140840009000BF6B
:1023C00000BF00BF10484069490108430E494861F9
:1023D00008464069012149040840009000BF00BF41
:1023E000E02001900220029000200390032004903E
:1023F0000020059001A90920C006FEF7D3FB06B016
:1024000010BD00000030014000100240FFB585B053
:1024100004461D460E9E012001900020009000BF42
:102420005C20005D012802D1022009B0F0BD01212D
:102430005C20015500BFFEF7B9FC07465D20005D3A
:102440000290606803900495029801280DD0FF2146
:1024500005310398884205D1A068002802D102986E
:10246000042802D0022000900AE10698002804D037
:102470000798002801D0002D02D101200090FFE034
:102480005D20005D042802D005215D20015500205B
:10249000206607982064462005534420055306987B
:1024A000A063E587A5870020E06420650721090275
:1024B000E068884207D92068406801210903884301
:1024C0002168486006E0206840680121090308434C
:1024D000216848602068006840210840402804D0F6
:1024E0002068006808432168086007210902E06845
:1024F000884257D96068002802D00498012809D181
:10250000A06B00882168C860A06B801CA063E08F6E
:10251000401EE0873EE020688068022108400228D3
:1025200011D1E08F00280ED0019801280BD1A06BAB
:1025300000882168C860A06B801CA063E08F401EEB
:10254000E0870020019020688068C007C00F002845
:1025500012D04620005B00280ED02068C068216C95
:102560000880206C801C20644620005B401E81B2E5
:102570004620015301200190FEF718FCC01BB04219
:1025800008D3701C002805D00320009001215D2095
:10259000015575E0E08F0028BDD14620005B002882
:1025A000B9D158E06068002802D00498012809D108
:1025B000A06B007821680873A06B401CA063E08FBB
:1025C000401EE08740E02068806802210840022821
:1025D00011D1E08F00280ED0019801280BD1A06BFB
:1025E000007821680873A06B401CA063E08F401E38
:1025F000E0870020019020688068C007C00F002895
:1026000012D04620005B00280ED02068007B216C91
:102610000870206C401C20644620005B401E81B284
:102620004620015301200190FEF7C0FBC01BB042C1
:1026300002D3701C002801D1002E05D10320009088
:1026400001215D2001551BE0E08F0028BBD1462011
:10265000005B0028B7D13A463146204601F0CEFA59
:10266000002803D00120009020202066206E002842
:1026700002D00120009002E001215D20015500BF41
:1026800000BF00215C20015500BF0098CDE67047D7
:10269000704710B50446002C01D1012010BD3D202B
:1026A000005D002805D100213C200155204600F0A6
:1026B00022F802213D200155211D206801F02CFC4B
:1026C00001214620015500BF3E2001553F20015504
:1026D000402001554120015500BF00BF4220015557
:1026E00043200155442001554520015500BF3D20A0
:1026F00001550020D2E7704701463D20405C01288B
:1027000001D00120704702233D2043540868C0686F
:10271000012318430B68D860124B086898420CD00C
:1027200001239B070868984207D00F4B086898421E
:1027300003D00E4B086898420CD1086880684207A5
:10274000520F062A0CD008680068012318430B6852
:10275000186005E008680068012318430B681860DA
:102760000020CFE7002C0140000400400040014061
:10277000704770B504462068C56820680669022065
:102780003040022819D12840022816D1401F216864
:10279000086101202077206880698007800F002869
:1027A00003D02046FFF7E4FF05E0204600F098F84C
:1027B000204600F096F800202077042030400428BE
:1027C0001AD12840042817D1C0432168086102208B
:1027D000207720688069032109020840002803D07F
:1027E0002046FFF7C5FF05E0204600F079F82046B7
:1027F00000F077F80020207708203040082819D111
:102800002840082816D1C043216808610420207799
:102810002068C0698007800F002803D02046FFF79A
:10282000A7FF05E0204600F05BF8204600F059F8CD
:10283000002020771020304010281AD1284010287E
:1028400017D1C04321680861082020772068C0693B
:10285000032109020840002803D02046FFF788FF23
:1028600005E0204600F03CF8204600F03AF8002051
:102870002077F007C00F00280AD0E807C00F002813
:1028800006D00120C04321680861204600F02AF8E4
:1028900080203040802808D12840802805D1C043BE
:1028A000216808612046FFF7F2FE402030404028B2
:1028B00008D12840402805D1C0432168086120463E
:1028C00000F01CF820203040202808D12840202883
:1028D00005D1C043216808612046FFF7D9FE70BDCD
:1028E0007047704710B5044603492068884201D1FB
:1028F000FEF7C0FE10BD0000002C0140704770477D
:1029000070477047F0B585B004462068C5692068F7
:10291000066820688768EC482840039003980028E0
:102920000FD12020284000280BD020203040002844
:1029300007D0A06E002802D02046A16E884705B0BF
:10294000F0BD039800287DD0F807C00F002803D100
:10295000DE4830400028F6D0E807C00F00280DD030
:10296000FF2001303040002808D001202168086293
:102970008420005901210843842108510220284065
:1029800000280CD0F807C00F002808D002202168CA
:10299000086284200059042108438421085104203E
:1029A000284000280CD0F807C00F002808D00420C9
:1029B00021680862842000590221084384210851BB
:1029C00008202840002810D020203040002803D1C3
:1029D000F807C00F002808D008202168086284206A
:1029E000005908210843842108510120C0022840D1
:1029F00000280ED0012080063040002809D0012098
:102A0000C0022168086284200059202108438421E3
:102A1000085184200059002854D020202840002844
:102A200009D020203040002805D0A06E002802D018
:102A30002046A16E88478420005902902068806853
:102A4000402100E03FE00840402804D028210298BF
:102A50000840002830D0204601F0C2FB2068806882
:102A600040210840402823D100BF02F068F80190BF
:102A7000012002F079F820688068402188432168AD
:102A80008860019802F070F800BF606F00280BD0DA
:102A90008F48616F4863606FFEF730F8002811D0EF
:102AA000606F416B88470DE02046FFF72AFF09E081
:102AB0002046FFF726FF05E02046FFF722FF002112
:102AC000842001513BE7206E01287DD11020284051
:102AD000002879D0102030400028FAD0102021683A
:102AE0000862206880684021084040286ED1606FED
:102AF0000068406880B201900198002863D0582097
:102B0000015B019881425EDD5A2101980853606F94
:102B1000806920284CD000BF02F011F800900120FD
:102B200002F022F820680068FF2101318843216803
:102B30000860009802F018F800BF00BF01F0FFFF26
:102B40000090012002F010F82068806840084000E2
:102B500021688860009802F007F800BF00BF01F00C
:102B6000EEFF0090012001F0FFFF20688068402107
:102B7000884321688860009801F0F6FF00BF20219B
:102B8000802001510020206600BF01F0D8FF009096
:102B9000012001F0E9FF20680068102188432168C6
:102BA0000860009801F0E0FF00BF606FFDF77DFF57
:102BB000022060665820025B5A20005B101A81B226
:102BC0002046FFF79CFEBAE64FE0FFE75820015B86
:102BD0005A20005B081A80B201905A20005B00283E
:102BE00042D0019800283FD000BF01F0A8FF00901C
:102BF000012001F0B9FF20680068FF2121318843DE
:102C000021680860009801F0AFFF00BF00BF01F02D
:102C100096FF0090012001F0A7FF2068806840081F
:102C2000400021688860009801F09EFF00BF2021CD
:102C30008020015100202066A06600BF01F07FFFC8
:102C40000090012001F090FF206800681021884367
:102C500021680860009801F087FF00BF02206066CD
:102C600020460199FFF74BFE69E601200005284048
:102C700000280CD0012080053840002807D0012012
:102C80000005216808622046FFF73AFE57E68020DB
:102C9000284000280AD080203040002806D0E06E6E
:102CA000002802D02046E16E884748E640202840B0
:102CB000002807D040203040002803D0204601F0F3
:102CC000CFFA3CE600BF3AE60F08000020010004FE
:102CD000C941000810B50446002C01D1012010BDE7
:102CE000A069002800D000E000BFE06F002805D1F7
:102CF000002178200155204600F02CF82420E067C0
:102D0000206800684008400021680860606A002868
:102D100002D0204601F060F9204601F009FC0128AC
:102D200000D1DCE7206840680921C9028843216896
:102D30004860206880682A2188432168886020686C
:102D400000680121084321680860204601F0BCF9B1
:102D5000C5E7000010B586B00446142101A8FDF7B0
:102D600075FA6E492068884237D100BF6C48806987
:102D70000121890308436A49886108468069012165
:102D800089030840009000BF00BF00BF644840694D
:102D9000C900084362494861084640690121490465
:102DA0000840009000BF00BF0320400201900220B5
:102DB000029000200390032004900120059001A9B7
:102DC0000920C006FDF7EEFE002203211B20FEF7BE
:102DD00001FD1B20FEF7F0FC9DE05249206888426F
:102DE00035D100BF4E48C0690121490408434C4910
:102DF000C8610846C069012149040840009000BF2D
:102E000000BF00BF4648406908434549486108463D
:102E10004069012149040840009000BF00BF0C2018
:102E200001900220029000200390032004900120D2
:102E3000059001A90920C006FDF7B4FE0022032178
:102E40001C20FEF7C7FC1C20FEF7B6FC63E03649E9
:102E5000206888422DD100BF3148C0690121890412
:102E600008432F49C8610846C06901218904084008
:102E7000009000BF00BF00BF2948406908432849AF
:102E8000486108464069012189040840009000BF5C
:102E900000BF0320800201900220029000200390D6
:102EA000032004900420059001A92048FDF77AFE34
:102EB00031E01F49206888422DD100BF1848C06901
:102EC0000121C90408431649C8610846C0690121A7
:102ED000C9040840009000BF00BF00BF104840690F
:102EE000891008430E494861084640690121490498
:102EF0000840009000BF00BF032001900220029014
:102F000000200390032004900420059001A90920CB
:102F1000C006FDF747FE06B010BD000000380140B6
:102F200000100240004400400048004000040048F7
:102F3000004C0040F8B504460D4616468020005966
:102F4000202834D1002D01D0002E01D10120F8BD60
:102F500001210903A068884208D12069002805D111
:102F6000E807C00F002801D00120F0E7002020660C
:102F7000206840680121C9050840002811D000BF21
:102F800001F0DDFD0746012001F0EEFD206800683C
:102F900001218906084321680860384601F0E4FDF4
:102FA00000BF32462946204601F0BAFBCFE7022097
:102FB000CDE7000010B5044607492068884209D1D2
:102FC00006480178064801F067F9012203490548DF
:102FD000FFF7B0FF10BD00000038014044000020A2
:102FE000EC0100202C020020704700BFFEE70168C2
:102FF0008969022211404908002902D00021026893
:10300000916201688969C907C90F01225140514085
:10301000002904D1016889691143026891617047F0
:10302000F7B584B004460E460020039020688769F7
:1030300000250698029010203840102854D12168AD
:10304000C8613DE0701C00283AD0FDF7AFFE029940
:10305000401AB04201D8002E32D1206840680121C8
:103060008903084001904220005D0090206880693B
:1030700049000840C00B00280ED049100198884232
:103080000AD00098202807D02068406808432168AB
:103090004860FDF78BFE02900AE0FDF787FE02997B
:1030A000401A192804D9202005430120039006E086
:1030B000206880692021084040090028EDD000BF29
:1030C00020688069202108404009002802D1039827
:1030D0000028B7D00398002802D120202168C861B9
:1030E000042005430120039020688769FF200130F8
:1030F0003840FF210131884206D1012005430002FA
:103100002168C8610120039001208002384001211C
:103110008902884206D108200543C0012168C861A0
:1031200001200390012040023840012149028842D9
:1031300006D10220054300022168C86101200390E6
:103140000398002815D02046FFF751FF20684068FB
:103150000949084021684860606C28436064202168
:103160004120015500214220015500BF402001555A
:1031700000BF039807B0F0BD00E800FEFFB581B0C6
:10318000044615461E460A9F1B48F2B200230090D3
:103190002046029900F072F8394620460B9A00F05A
:1031A000FDF8002802D0012005B0F0BD012E03D1AA
:1031B000E8B22168886211E0FF2000022840001276
:1031C00021688862394620460B9A00F0E7F800280B
:1031D00001D00120E8E7E8B2216888620B983B46FD
:1031E000002240210090204600F066F8002801D01F
:1031F0000120D9E70020D7E700200080FFB581B08B
:10320000044615461E460A9F1B48F2B2C3020090B0
:103210002046029900F032F8394620460B9A00F019
:10322000BDF8002802D0012005B0F0BD012E03D169
:10323000E8B22168886211E0FF20000228400012F5
:1032400021688862394620460B9A00F0A7F80028CA
:1032500001D00120E8E7E8B2216888620B983B467C
:10326000002280210090204600F026F8002801D09E
:103270000120D9E70020D7E700200080F8B5069CA0
:103280008D05AD0D1604FF273F043E4035431D4319
:1032900025436D006D08009505686E68650D012772
:1032A000BF023D40034F3D43AE43009D2E430568A2
:1032B0006E60F8BDFF63FF03F8B504460D46174680
:1032C0001E462CE031462046069AFFF7A9FE00284C
:1032D00001D00120F8BD701C002820D0FDF766FD4C
:1032E0000699401AB04201D8002E18D12068806992
:1032F0002840A84201D1012000E00020B8420ED1B0
:10330000606C202108436064412001550021422067
:10331000015500BF4020015500BF0120DAE72068B9
:1033200080692840A84201D1012000E00020B84275
:10333000C8D00020CEE770B504460D46164624E0FE
:10334000324629462046FFF76BFE002801D00120B7
:1033500070BDFDF72BFD801BA84201D8002D14D1B4
:103360002068806920210840400900280DD1606C48
:10337000084360644120015500214220015500BFEF
:103380004020015500BF0120E2E72068806920212C
:10339000084040090028D3D00020D9E770B5044682
:1033A0000D46164628E0324629462046FFF738FEED
:1033B000002801D0012070BD681C00281CD0FDF73A
:1033C000F5FC801BA84201D8002D15D1206880692A
:1033D00002210840400800280ED1606C20210843DB
:1033E00060644120015500214220015500BF40206A
:1033F000015500BF0120DEE72068806902210840F6
:1034000040080028CFD00020D5E70000FFB581B0EC
:1034100004460E4617460A9D266067600498A06021
:1034200020460C3002F0BEFD2046303002F0BAFDDE
:1034300015492046303002F09AFD7F20C005E06536
:10344000256629463F200006FCF777FF29460090B5
:10345000FCF773FF60660021A1667F21C905E16664
:10346000256700216167A1677F21C905E167802089
:1034700001510021842001518820015103486065D9
:10348000A56505B0F0BD00006F12833ACDCCCC3DF0
:10349000F0B599B004460D46242110A8FCF7D6FEDD
:1034A000242107A8FCF7D2FE002004900590069086
:1034B00001900290039022468C32214620465C30D7
:1034C00002F0CDFC10AA21460C3120465C3002F0FF
:1034D000F2FC07A920465C3002F07CFD22469832BF
:1034E00007A910A802F0E7FC2246983221463031A5
:1034F000104602F035FC21468C312046803002F027
:103500004FFC29460090FCF714FF064604AA21460A
:1035100098312046803002F05DFC802000590190F7
:1035200084200059029088200059039001A904A822
:1035300002F036FC0090616DFCF7A6FE07462246BD
:10354000BC3201A92046983002F089FC39467F2020
:10355000C005FCF72FFF014600902046BC3002F06A
:10356000E5FC04AA31462046BC3002F0EFFC2246BE
:1035700004A920468C3002F0E1FB10AA21468031DC
:103580002046BC3002F051FC0A4910A802F0EFFCC2
:1035900007A802F007FD10AA07A910A802F0E0FB97
:1035A00022460C322146983110A802F084FC206893
:1035B00019B0F0BD000080BF10B5C021034800F075
:1035C00007F8C221014800F003F810BD14010020E3
:1035D00070B504460D466423032229462046FDF7B4
:1035E000D1FC70BDFFB583B0064614461D460F489A
:1035F000844200DD0446002D01D0602000E0402020
:103600000746684607722005010E68464172200190
:10361000F0210840694688726420032302AA0090C2
:1036200030460499FDF772FD07B0F0BDFF0F0000B2
:1036300010B504463F2170200155C820FDF78AFAD5
:103640000021124802F066FD204600F0BBFA204639
:1036500002F087F9204602F017FD0021204602F013
:1036600003FD0121204602F0CDFC0021204602F09E
:10367000FBFC0121204602F0D9FC204602F071F942
:103680000121204602F046FD10BD000094040020F8
:1036900000BF2D4802F065F92B482330FCF7E1FD0F
:1036A000044621462948FFF7F3FE294908602648C9
:1036B0002730FCF7D6FD044621462648FFF7E8FEF2
:1036C0002549086020481B30FCF7CBFD0546204803
:1036D00001682846FCF731FE04461B492F31FCF7F0
:1036E000CAFD19481F30FCF7BCFD05461A480168A1
:1036F0002846FCF722FE044613493331FCF7BBFD94
:1037000011482F30FCF7ADFD04460021FCF794FF73
:1037100015D20D482F30FCF7A4FD06460A48333079
:10372000FCF79FFD07463146FCF744FE05460B4972
:10373000FCF703FE044604493731FCF79CFD0A20E0
:1037400002F07EFEA5E7000094040020080500209A
:1037500024000020D0050020280000200000C842DE
:10376000FEB504460D4616460020C04301210096D2
:1037700001910290610001232A460248FDF790FD65
:10378000FEBD0000140100207FB504460D4616461C
:1037900000200390401E022103AA00920191029092
:1037A000610001232A460548FDF77AFD6946487BFA
:1037B0000002097B084330807FBD00001401002017
:1037C00010B5044601232246C2210248FFF70AFF32
:1037D00010BD00001401002010B50446012322464C
:1037E000C0210248FFF7FEFE10BD000014010020BA
:1037F00013B582B004460020C0436100012303AA30
:1038000000900248FDF782FC1FBD0000140100205B
:1038100000BF04480168044802F090FD0A2002F04D
:103820000FFEF6E7140000209404002037B584B0A2
:1038300004460D460020C043012106AA00920191D2
:103840000290610001232A460248FDF7FFFD07B000
:1038500030BD0000140100207FB505460E46144619
:103860000020039068460473211241730020C04376
:10387000022103AA009201910290690001233246BD
:103880000148FDF7E3FD7FBD1401002010B50E4A8D
:1038900000210E4802F032FE0D4908600D4A002159
:1038A0000D4802F02BFE0D4908600D4A00210D481D
:1038B00002F024FE0C4908600C4A00210C4802F07A
:1038C0001DFE0C49086010BD4C840008513E0008E4
:1038D0003400002070840008913600083800002071
:1038E00094840008113800083C000020B8840008C7
:1038F000433E00084000002000B587B0142102A814
:10390000FCF7A4FC00BF3C4840690121890508433D
:1039100039494861084640690121890508400190FC
:1039200000BF00BF00BF3448406949110843324915
:10393000486108464069012149040840019000BFE0
:1039400000BF00BF2C484069490008432A4948612C
:1039500008464069012189040840019000BF00BF6A
:10396000002210210920C006FDF71AFA01221103D6
:103970002248FDF715FA0022012149031F48FDF7EF
:103980000FFA10200290012003900020049005906F
:1039900002A90920C006FDF705F9012000030290E5
:1039A0001120039000200490059002A91348FDF710
:1039B000F9F80120400302900120039000200490B8
:1039C000059002A90D48FDF7EDF801208003029053
:1039D0001120000403900020049002A90748FDF77D
:1039E000E1F8002203210720FDF7F4FE0720FDF790
:1039F000E3FE07B000BD00000010024000040048D4
:103A000010B5134813490860134848600021114855
:103A100081600121C1600021016141618161C16159
:103A20000162FDF739FA002801D0FDF73BF80021CB
:103A30000848FDF7C1F9002801D0FDF733F800214F
:103A40000448FDF7F0F9002801D0FDF72BF810BD70
:103A500000540040140100200A02100010B5124862
:103A600012490860FF200530486000210F4881603E
:103A700007210902C1600021016141610121490260
:103A800081610821C16100210162416281620721D7
:103A9000C1620021016308214163FEF7F3FB0028A6
:103AA00001D0FCF7FFFF10BD00300140680100208D
:103AB00010B50E480E4908607D20000348600021C3
:103AC0000B488160C16001610C214161002181616D
:103AD000C16101620020064948620846FFF7FAF812
:103AE000002801D0FCF7DEFF10BD000000380140C7
:103AF0002C02002010B50E480E4908604B204002F1
:103B0000486000210B488160C16001610C21416166
:103B100000218161C16101620020064948620846B6
:103B2000FFF7D8F8002801D0FCF7BCFF10BD00005B
:103B300000440040B402002010B50E480E49086051
:103B40004B204002486000210B488160C160016148
:103B50000C21416100218161C1610162002006499F
:103B600048620846FFF7B6F8002801D0FCF79AFF34
:103B700010BD0000004800403C03002010B50E4876
:103B80000E4908604B204002486000210B488160CC
:103B9000C16001610C21416100218161C16101624B
:103BA0000020064948620846FFF794F8002801D033
:103BB000FCF778FF10BD0000004C0040C40300205B
:103BC00000BFFEE710B504467021085D0922D02130
:103BD000FFF72CFE204601F061FD10BD01B582B05B
:103BE0007D20C000012301AA02A900900248FEF72F
:103BF0000DFC684600790EBD68010020F8B504464A
:103C00000E461546334600220321C9022046009580
:103C100000F02AF8002805D0206E202108432066F5
:103C20000320F8BD3346002280212046009500F095
:103C300099F8002805D0206E202108432066032033
:103C4000EFE733460022032149022046009500F0A9
:103C50000BF8002805D0206E2021084320660320A1
:103C6000DFE70020DDE70000F0B585B004460D4633
:103C700016461F4600200090FDF798F80A99401A52
:103C8000381A0390FDF792F8029020680C300190EA
:103C90003348006823214843000D039948430490AA
:103CA00056E003204002854206D1002E04D101983F
:103CB0000178009168460078781C002848D0FDF70C
:103CC00075F80299411A0398814202D2039800289C
:103CD00037D120684068E021884321684860FF218F
:103CE0000531606888420ED10121C903A06888426D
:103CF00003D04911A068884205D12068006840219E
:103D000088432168086001214903A06A88420DD1D7
:103D100000BF206800688843216808602068006848
:103D20000121490308432168086000BF01215D208B
:103D3000015500BF00215C20015500BF032005B0E4
:103D4000F0BD0498002800D103900498401E049010
:103D5000206880682840B042A3D10020EFE700002F
:103D600054000020FFB583B004460D461E46FDF703
:103D70001DF80C99401A371AFDF718F801902F48D2
:103D800000684001000D7843029049E0701C002853
:103D900046D0FDF70BF80199401AB84201D2002F26
:103DA00037D120684068E021884321684860FF21BE
:103DB0000531606888420ED10121C903A06888429C
:103DC00003D04911A068884205D1206800684021CD
:103DD00088432168086001214903A06A88420DD107
:103DE00000BF206800688843216808602068006878
:103DF0000121490308432168086000BF01215D20BB
:103E0000015500BF00215C20015500BF032007B011
:103E1000F0BD0298002800D100270298401E0290B1
:103E2000206880682840A84201D1012100E00021DB
:103E300005988142AAD10020E9E700005400002043
:103E4000704700BF03F02EF90A2002F0F9FAF9E7F3
:103E500000BF012002F0F4FAFBE7000010B5FCF708
:103E60004FF9044604F0E2F8002803D001200007CF
:103E7000024948602046FCF747F910BD00ED00E01C
:103E800000B599B034210CA8FCF7E0F900200890A7
:103E900009900A900B901C2101A8FCF7D7F9032088
:103EA0000C9001200D900F90102010900220159082
:103EB000C1031691C1041791002118910CA8FDF7B8
:103EC000C3FE002801D0FCF7EDFD0720089002207A
:103ED000099000200A900B90012108A8FDF756FDDB
:103EE000002801D0FCF7DEFD232001900020039084
:103EF0000490059001A8FDF777FC002801D0FCF79D
:103F0000D1FD19B000BD704710B50248FEF731FC75
:103F100010BD00004C04002010B50268284B9842E8
:103F200006D001239B07984202D0264B984205D128
:103F300070241346A3431A464B681A43204B9842F9
:103F400012D001239B0798420ED01E4B98420BD0F3
:103F50001D4B984208D01D4B984205D01C4B9842EF
:103F600002D01C4B984206D1032424021346A343DB
:103F70001A46CB681A4380241346A3434C69234353
:103F80001A4602608B68C3620B6883620C4B9842CE
:103F900008D00E4B984205D00D4B984202D00D4BE5
:103FA000984201D10B690363012343610369DB0775
:103FB000DB0F002B03D003695B085B00036110BDBE
:103FC000002C01400004004000200040004001405F
:103FD00000440140004801400822416A114008297C
:103FE00007D10168496812039143426B114302688B
:103FF0005160818CC907C90F002908D00168496840
:10400000012252049143826A1143026851600222E4
:10401000416A1140022907D101684968D2039143DE
:10402000C26A1143026851600422416A11400429A6
:1040300007D10168496812049143026B1143026879
:1040400051601022416A1140102907D10168896826
:1040500012029143826B1143026891602022416AEF
:104060001140202907D10168896812029143C26B6F
:104070001143026891604022416A1140402915D1E4
:104080000168496892039143026C114302685160D0
:1040900001221205016C914208D10168496803228E
:1040A00052059143426C1143026851608022416A7B
:1040B0001140802907D10168496812039143826C3D
:1040C0001143026851607047F8B50446002184200E
:1040D0000151FCF76BFE0546206800680821084086
:1040E000082823D137482B46002289040090204617
:1040F00000F0A6FB002819D000BF00F020FD064606
:10410000012000F031FD206800688021884321688B
:104110000860304600F028FD00BF2020E06700BFA7
:1041200000217820015500BF0320F8BD20680068F9
:1041300004210840042836D122482B4600220905D4
:104140000090204600F07CFB00282CD000BF00F03F
:10415000F6FC0646012000F007FD20680068FF21FC
:104160002131884321680860304600F0FDFC00BF23
:1041700000BF00F0E4FC0646012000F0F5FC2068DA
:1041800080684008400021688860304600F0ECFC00
:1041900000BF20218020015100BF0021782001555F
:1041A00000BF0320C1E72020E067202180200151CB
:1041B00000202066606600BF00217820015500BF06
:1041C0000020B2E7FFFFFF0170B505466C6A0021D1
:1041D0005A200153522001532046FEF792FB70BD36
:1041E00070B5044600BF00F0AAFC0546012000F0AF
:1041F000BBFC20680068FF212131884321680860EA
:10420000284600F0B1FC00BF00BF00F098FC054656
:10421000012000F0A9FC2068806840084000216867
:104220008860284600F0A0FC00BF206E012810D155
:1042300000BF00F084FC0546012000F095FC2068DA
:1042400000681021884321680860284600F08CFC33
:1042500000BF20218020015100202066A06670BD93
:1042600070B5044600BF00F06AFC0546012000F06E
:104270007BFC20680068402188432168086028464C
:1042800000F072FC00BF2020E0670020E0662046BE
:10429000FEF7AAFE70BD000070B505460C46662C00
:1042A00003D10120114908701EE0FF2C10D11048E5
:1042B0000078401C0E49087008460078032813D186
:1042C00001F0AEF800200A4908700A4908700BE0B6
:1042D00006480078002807D0064801780078401C7E
:1042E000044A10700448445470BD00004600002089
:1042F0004700002045000020CC010020F8B504460E
:104300005C20075B8020005922287DD12068868CA4
:10431000656D304638402880606D801C60655A208D
:10432000005B401E81B25A200153005B002871D10E
:1043300000BF00F004FC0090012000F015FC206894
:104340000068FF212131884321680860009800F04F
:104350000BFC00BF00BF00F0F2FB0090012000F05A
:1043600003FC20688068400840002168886000984D
:1043700000F0FAFB00BF2021802001510020A06640
:1043800060662068406889040840002811D000BF9A
:1043900000F0D5FB0090012000F0E6FB20680068EB
:1043A00001218906884321680860009800F0DCFB41
:1043B00000BF206E012823D10020206600BF00F03E
:1043C000BEFB0090012000F0CFFB206800681021A8
:1043D000884321680860009800F0C6FB00BF206891
:1043E000C069102108400009002802D0102021686F
:1043F00008625820015B2046FEF781FA0AE003E0DC
:104400002046FEF7D7FD05E02068806908210843B3
:1044100021688861F8BDF8B504465C20065B802001
:10442000005922287DD12068858CF0B22840616D2A
:104430000870606D401C60655A20005B401E81B2B0
:104440005A200153005B002871D100BF00F077FBB8
:104450000746012000F088FB20680068FF21213119
:10446000884321680860384600F07EFB00BF00BF2B
:1044700000F065FB0746012000F076FB20688068AD
:104480004008400021688860384600F06DFB00BF9E
:104490002021802001510020A066606620684068CD
:1044A00089040840002811D000BF00F048FB0746EF
:1044B000012000F059FB206800680121890688432B
:1044C00021680860384600F04FFB00BF206E0128CD
:1044D00023D10020206600BF00F031FB07460120F9
:1044E00000F042FB206800681021884321680860C2
:1044F000384600F039FB00BF2068C0691021084031
:104500000009002802D01020216808625820015BB1
:104510002046FEF7F4F90AE003E02046FEF74AFDE4
:1045200005E0206880690821084321688861F8BD9A
:10453000FEB50446002000902169A0680843616927
:104540000843E16908430290206800686C4908400C
:104550000299084321680860206840680321090324
:104560008843E168084321684860A0690290206A96
:10457000029908430290206880680B210902884351
:10458000029908432168886000BF5E49206888421C
:1045900017D15D48006B8007800F002806D00128E6
:1045A00008D0022808D0032808D101E0002507E040
:1045B000022505E0042503E0082501E0102500BFE1
:1045C0002BE05249206888421AD14F48006B0321E2
:1045D00009040840002808D001210904401A08D025
:1045E000401A08D0401A08D101E0002507E0022552
:1045F00005E0042503E0082501E0102500BF0CE0DC
:1046000043492068884201D1002506E041492068DD
:10461000884201D1002500E0102500BF0121C90317
:10462000E069884239D1002D06D0022D08D0042D32
:1046300008D0082D0DD109E0FDF78CFA06460CE0F4
:10464000354E0AE0FDF798FA064606E00126F60325
:1046500003E000260120009000BF00BF002E4AD0DA
:10466000720063685B08D0186168FBF77FFD07463E
:10467000102F0FD3294887420CD828480F383840CC
:1046800001903807400F0199084301900198216873
:10469000C86030E0012000902DE0002D06D0022DF2
:1046A00008D0042D08D0082D0DD109E0FDF752FAED
:1046B00006460CE0184E0AE0FDF75EFA064606E0F4
:1046C0000126F60303E000260120009000BF00BF92
:1046D000002E10D061684A089019FBF747FD074685
:1046E000102F06D30D48874203D8B8B22168C8609E
:1046F00001E0012000900020A066E0660098FEBD69
:10470000F369FFEF00380140001002400044004010
:1047100000480040004C004000127A00FFFF0000FB
:10472000F8B504460E4615466665582005535A20CE
:1047300005530020A06600BF01210903A06888423C
:104740000AD12069002803D13A495C20015324E0B2
:10475000FF215C20015320E0A06800280AD12069D5
:10476000002803D1FF215C20015316E07F215C204B
:10477000015312E001210907A06888420AD120698B
:10478000002803D17F215C20015306E03F215C20FB
:10479000015302E000215C20015300BF002184206E
:1047A000015122218020015100BF00F0C8F90746C5
:1047B000012000F0D9F920688068012108432168B0
:1047C0008860384600F0D0F900BF01210903A068D5
:1047D000884205D12069002802D11748A06601E06F
:1047E0001648A0662069002811D000BF00F0A7F984
:1047F0000746012000F0B8F920680068FF21213148
:10480000084321680860384600F0AEF910E000BFA8
:1048100000F095F90746012000F0A6F9206800682D
:104820002021084321680860384600F09DF900BF48
:104830000020F8BDFF010000FD42000817440008F9
:10484000FFB581B004460D4617460A9E46E0701C2F
:10485000002843D0FCF7AAFA0499401AB04201D8C4
:10486000002E02D1032005B0F0BD206800680421AD
:104870000840002832D0802D30D0402D2ED0206826
:10488000C06908210840C00800280FD0082021680E
:1048900008622046FFF7A4FC08218420015100BFD4
:1048A00000217820015500BF0120DCE72068C069A5
:1048B0000121C9020840C00A00280FD0084621681B
:1048C00008622046FFF78CFC20218420015100BFA4
:1048D00000217820015500BF0320C4E72068C0698B
:1048E0002840A84201D1012000E00020B842AED00B
:1048F0000020B8E710B50248FEF704F810BD00002C
:104900002C02002010B50248FDF7FCFF10BD00008E
:10491000B402002010B5194800680068402108431F
:10492000164909680860FF20FFF758F90122102195
:104930000920C006FCF734FA00F026F81049088078
:10494000084600880F49884216D1032000F041F83C
:104950000446E007C00F00280ED1002210210920D4
:10496000C006FCF71DFAB720FFF738F90122102125
:104970000920C006FCF714FA10BD000068010020F1
:104980005800002018EF000010B50024002210216C
:104990000920C006FCF704FA9020FFF71FF9002059
:1049A000FFF71CF90020FFF719F90020FFF716F9AF
:1049B000FF20FFF713F900020443FF20FFF70EF971
:1049C0000443012210210920C006FCF7E9F9204622
:1049D00010BD70B5044600250026012C04D0022C21
:1049E00004D0032C06D103E0052605E0352603E0BC
:1049F000152601E0052600BF00BF00221021092076
:104A0000C006FCF7CDF93046FFF7E8F8FF20FFF7C6
:104A1000E5F80546012210210920C006FCF7C0F97F
:104A2000284670BD0FB410B503A9044B044A029880
:104A300000F058F910BC08BC04B01847155600081F
:104A4000100100202021020C01D010211046020A82
:104A500001D010460839020901D01046091F82080A
:104A600001D01046891E420801D0881E7047081ADE
:104A70007047F8B582B28BB2040C0D0C1046584347
:104A8000002126465E43370C3604801979411646CC
:104A90006E43370C36048019794126466E438919D6
:104AA000F8BD30B47446641E2578641CAB4204D350
:104AB000635D5B00E31830BC18471D46F8E7000053
:104AC00010B5002819DB1A4A03231B02D2188308E9
:104AD0009B00D2588307DC0EFF23A3409A438B0729
:104AE0001B0E8407E40EA3401A43114B0324240237
:104AF0001B198408A4001A5118E00E4A03071B0F63
:104B0000083B9B089B00D2588307DC0EFF23A34081
:104B10009A438B071B0E8407E40EA3401A43054BF0
:104B20000407240F083CA408A4001A5110BD00007B
:104B300000E100E01CED00E0EFF305807047EFF3CB
:104B400010807047EFF31080704702E008C8121F12
:104B500008C1002AFAD170477047002001E001C166
:104B6000121F002AFBD1704780F3108870470000A5
:104B7000F0B51FB486B00998089A030D00210243CE
:104B800014D05148514A181850430514119801285F
:104B900010981AD0281A401C00264D4F4D490096F7
:104BA00001910490002812DA444211E01198012486
:104BB00049A3012801D11098C1430698119A846035
:104BC0000360C26041600BB0F0BD4042E4E70446C0
:104BD000210500203F4A001C51410391029012E040
:104BE000E00707D032463B4601990098FBF720FCCE
:104BF0000191009032463B4610461946FBF718FCDF
:104C000006460F466410002CEAD10498039B002846
:104C1000029A0999089806DAFBF70AFC019B009AA8
:104C2000FBF706FC05E0FBF775FE019B009AFBF71E
:104C300071FE04460E460022284BFBF7C3FC03D846
:104C40000020C043014607E00022254B20463146A4
:104C5000FBF7ACFDFBF7D6FE102409E0002C0ADBC5
:104C60000A220023FBF798FA079B30321A55641E7C
:104C700002460A43F2D11122641C079B121B1C1925
:104C8000119B012B03D0012308430ED10AE00843F6
:104C900004D0112010900020119077E71098151A79
:104CA0006D1E0BE01098824202DD00236D1C03E0B4
:104CB000824201DA00236D1E002BEED00698119976
:104CC0008260C16030C07EE701FCFFFF104D000034
:104CD000000014400000F03F300000000000F043EE
:104CE0000000E03FFFB597B0064600251BE22528EF
:104CF00076D100242746F749049400E00443761C4B
:104D000032780120203A90400842F7D130782A28A2
:104D10000ED00222307801463039092916D804997C
:104D20000A235943303940181443761C0490F1E7A4
:104D3000189802C804911890002904DA0120400351
:104D400004434842049002200443761C30782E2805
:104D500014D1042004437078761C2A2809D11898AD
:104D6000761C80C8189009E00A214F43303FC719CC
:104D7000761C3078014630390929F5D930786C280D
:104D800010D006DC4C281AD068280ED06A2817D11B
:104D900004E0742813D07A2812D110E001204005D5
:104DA00004430CE00121090501E0032109050C433E
:104DB0007178814203D1012000052418761C761CED
:104DC000307866280BD013DC58287DD009DC002809
:104DD0007BD04528F6D04628F4D047281AD1A9E13F
:104DE00018E0632835D0642870D0652812D1A1E17D
:104DF00070286CD008DC6728F1D069287DD06E2837
:104E00000DD06F2806D1BCE073282ED0752873D042
:104E1000782859D01A9A199990476D1C82E160023E
:104E2000400F022809D003280DD0042818980168E3
:104E30000DD00D60001D189074E11898EA170168F4
:104E40000D604A60F6E7189801680D80F2E70D7072
:104E5000F0E718986A4601781172001D189000203A
:104E6000507202A80090012005E0189802C818901E
:104E700000200091C04361070ED5002101E0019997
:104E8000491C0191B94213DA8142F8DB019A009979
:104E9000895C0029F3D10BE0002101E00199491C54
:104EA00001918142FADB019A0099895C0029F5D1D0
:104EB000019904981A9B471A21463846199A00F01E
:104EC00099FA4019019903E051E030E115E050E012
:104ED000451807E0009800990078491C00911A9A3B
:104EE000199990470198401E0190401CF2D121462B
:104EF00038461A9B199A12E137E00A2000210090E7
:104F000001916002410F022907D0189A01CA189234
:104F1000C2179446032908D00AE01898C01DC1089A
:104F2000C90005C91891944607E000B2C21794461B
:104F3000042902D140B2C1178C4600226146944533
:104F400006DA0A460021404291418C462D2102E0BA
:104F5000210504D52B216A461173012103E0E107E5
:104F600001D02021F7E7029156E00A200AE0102044
:104F700008E010200090002104200443019108273C
:104F800003E008200021019100906002410F0229F6
:104F900007D0189A01CA189200229446032908D013
:104FA00008E01898C01DC108C90005C918919446A9
:104FB00003E080B2042900D1C0B200210291210790
:104FC0002AD531780D91702906D0009A1021019BC5
:104FD0004A401A4305D00EE040216A461173012170
:104FE00008E06146014306D030216A4611730D99ED
:104FF000517302210291009A0821019B4A401A43F1
:105000000AD16146014301D1610705D530216A46C5
:10501000117301217F1E02913178582904D02EA1ED
:105020000E910DA90D910DE030A1F9E76146019BAC
:10503000009AFBF7B1F80E9B8C469B5C0D9A521EB2
:105040000D92137061460143F0D10D9805A9081A1D
:1050500020300190600703D501200004844300E064
:1050600001270198874201DD381A00E000200199EC
:1050700000904118029809180498401A0490E0031F
:1050800006D421461A9B199A049800F0B3F94519E1
:10509000002706E003A81A9AC05D199990476D1C75
:1050A0007F1C02988742F5DBE0030CD521461A9B52
:1050B000199A049800F09EF9451904E01A9A3020D4
:1050C000199990476D1C0099481E00900029F5DC45
:1050D0001FE0000009280100303132333435363703
:1050E0003839616263646566000000003031323334
:1050F00034353637383941424344454600000000D4
:105100000D980D990078491C0D911A9A199990479C
:105110006D1C0199481E01900029F1DC4DE100F061
:1051200059F94519761C3078002800D0DFE528466B
:105130001BB0F0BD600700D406271898C01DC10839
:10514000C90048680A680831C30FDB0718911900C5
:1051500001D09CA108E0210501D59BA104E0E10755
:1051600001D09AA100E09AA14300109130785B0829
:1051700065280CD006DC452809D046281DD04728D4
:1051800041D141E0662818D067283CD13CE000219D
:10519000112F01DB112000E0781C0191009008A97B
:1051A00011A8FFF7E5FC139905910021119A1592BA
:1051B0007F1C12980197009150E00120C0070390D6
:1051C0000120019008A9009711A8FFF7D1FC139ABC
:1051D000149905920022119B009212981593059A3A
:1051E0000192002901D0104602E0791C401801907C
:1051F000381A01D5019804E04042401E0090781C06
:105200000190C01B029043E0012F00DA012700212A
:10521000112F01DD112000E038460191009008A90E
:1052200011A8FFF7A5FC13990591119A0021129876
:1052300015920091019721070CD40599B94201DB21
:10524000019900E00191012904DD159A491E515C84
:10525000302906D0B84201DA011D05DA0121029198
:1052600015E00199491EEDE7002805DC0099411879
:1052700000910199091A03E0019A411C914200DD55
:1052800001910099401A401C02900120C007039030
:10529000200706D402990198814202DB0020C04316
:1052A000029000206946C87707AF012103980337B1
:1052B000C907884224D0022011902B201290039815
:1052C00000280CDA404203902D20129007E00A21BA
:1052D0000398FAF74BFF30317F1E03903970119914
:1052E000481E11900029F2DC03980028EFD1791EA6
:1052F000129808703078202108404530BF1E387061
:1053000006A8C01BC01D039010980078002800D08C
:105310000120019941180298C0170918039809182B
:105320000498401A401E0490E00306D421461A9BBC
:10533000199A049800F05EF8451910980078002832
:1053400003D01A9A199990476D1CE00324D5214681
:105350001A9B199A049800F04DF845191CE0009822
:10536000002807DB00990598884203DD1598405C0A
:10537000199901E0199930201A9A904700986D1CEC
:10538000401C00900298401E0290002804D11A9AF6
:105390002E20199990476D1C0199481E01900029F3
:1053A000DDDC05E038781A9A7F1C199990476D1C4E
:1053B0000399481E03900029F4DC21461A9B199A90
:1053C0000498ACE62D0000002B0000002000000037
:1053D00000000000F8B5044600251E461746880464
:1053E00004D405E039462020B0476D1C641EF9D571
:1053F0002846F8BDFFB50446002581B01E46C80307
:1054000001D5302700E02027880404D505E0384680
:105410000399B0476D1C641EF9D5284605B0F0BD50
:1054200070B56C480078AA2851D16A498878FBF792
:1054300072F806466849FAF780FF044665494878DD
:10544000FBF769F805462146FAF71EFF6349086035
:1054500060490879FBF75FF806465F49FAF76DFF88
:1054600004465C49C878FBF756F805462146FAF72A
:105470000BFF5B49086057498879FBF74CF80646F3
:105480005549FAF75AFF044652494879FBF743F861
:1054900005462146FAF7F8FE524908604D49087A58
:1054A000FBF739F806464C49FAF747FF04464949E5
:1054B000C879FBF730F805462146FAF7E5FE4A4978
:1054C000086047480168494800F0FAFD7DE041481E
:1054D0000078EE280ED13F484078002801D0012006
:1054E00000E0002042490870084601783F4800F07B
:1054F00011FE6AE037480078CC2809D13548407859
:10550000002801D0012000E000203A4908705CE04A
:1055100030480078DE2820D12E484078364908608F
:1055200008460068012806D0022808D003280AD0BF
:10553000042811D10BE00020FEF74EF90CE02F48B3
:10554000FEF74AF908E02E48FEF746F904E001208C
:105550000003FEF741F900BF37E01E480078FE283F
:105560001FD11C4840782749086008460068012878
:1055700006D0022808D003280AD0042810D10BE056
:105580000020FEF71DF90BE01C48FEF719F907E0B3
:105590001B48FEF715F903E01B48FEF711F900BFA1
:1055A00013E00C480078AB280FD10A484078BA289D
:1055B0000BD10120104908601249086013481449B2
:1055C00008608120C0050649086020210148FAF7DB
:1055D0003DFE70BDCC0100200AD7233C1400002002
:1055E0006400002084000020880000209404002033
:1055F000900000209100002094000020550500003C
:10560000AA0A000098000020FF0F00000000A04040
:105610006000002000BF054AD26940231A40002ADA
:10562000F9D0C2B2014B20331A81704700380140D3
:1056300038B50446002100917021085D6A46D921E1
:10564000FEF78EF8684601786E20015538BD38B5F2
:105650000446002100917021085D6A46D921FEF7B9
:105660007FF8684601786F20015538BD10B50446B3
:10567000204600F013F8204600F044F8204600F0E1
:1056800060F8204600F08AF8204600F0BBF820467B
:1056900000F0D7F8204600F0F3F810BD10B504462E
:1056A0007021085D164AD021FEF75AF81448007898
:1056B00080210840C1114720015511480078602120
:1056C00008404111482001550D480078102108403C
:1056D0000111492001550A48007808210840C110ED
:1056E0004A200155064800780421084081104B20CB
:1056F0000155034800788107890F4C20015510BDE2
:105700005A00002038B50446002100917021085D40
:105710006A46D121FEF724F8684600782021084027
:1057200041114D2001556846007818210840C110EC
:105730004E200155684600784107490F4F2001551A
:1057400038BD38B50446002100917021085D6A46D5
:10575000D321FEF705F86846007880210840C11182
:1057600050200155684600784021084081115120A1
:10577000015568460078202108404111522001550A
:105780006846007818210840C1105320015568462A
:1057900000788107890F5420015538BD38B504467B
:1057A000002100917021085D6A46D421FDF7D8FFE1
:1057B0006846007880210840C1115720015568468D
:1057C0000078602108404111582001556846007852
:1057D00010210840011156200155684600780C211F
:1057E0000840811059200155684600780221084080
:1057F00041105A20015568460078C107C90F55204D
:10580000015538BD38B50446002100917021085D6E
:105810006A46D521FDF7A4FF68460078C0210840FC
:1058200081115B2001556846007830210840011144
:105830005C200155684600780107090F5D2001557D
:1058400038BD38B50446002100917021085D6A46D4
:10585000D221FDF785FF68460078E021084001115C
:1058600062200155684600780C21084081106320B1
:105870000155684600788107890F6420015538BDBD
:1058800038B50446002100917021085D6A46D62192
:10589000FDF766FF6846007880210840C1115E2050
:1058A00001556846007870210840011161200155BA
:1058B0006846007808210840C1105F2001556846FD
:1058C00000788107890F6020015538BD38B504463E
:1058D000002100917021085D6A46D821FDF740FF44
:1058E0006846007880210840C1116520015568464E
:1058F00000784021084081116620015568460078F3
:105900002021084041116720015568460078102188
:1059100008400111682001556846007808210840B8
:10592000C1106920015568460078042108408110A3
:105930006A200155684600780221084041106B201A
:10594000015568460078C107C90F6C20015538BD64
:1059500010B504462046FFF76BFE2046FFF777FEA2
:1059600010BD10B504462046FFF780FE204600F02B
:1059700033FC204600F08CFC204600F03DFC204625
:1059800000F010FC204600F0F3FB204600F0CEFBB8
:10599000204600F0E3F8204600F056F905212046A5
:1059A00000F008F82046FFF7D3FF2046FFF78EFFF0
:1059B00010BD0000F0B58DB004460D460026002055
:1059C0000C900B900A900990002774E00021089138
:1059D00007910691059104917021085D08AA88211C
:1059E000FDF7D2FE7021085D07AA8921FDF7CCFEE4
:1059F0007021085D06AA8B21FDF7C6FE7021085DA7
:105A000005AA8C21FDF7C0FE7021085D04AA8D2136
:105A1000FDF7BAFE6946098C8805800DFAF770FD1E
:105A20004A490290FAF789FC31460390FAF72CFCB8
:105A300006466946898B8805800DFAF761FD444961
:105A40000290FAF77AFC03900C99FAF71DFC0C907F
:105A50006946098B8805800DFAF752FD3B49029093
:105A6000FAF76BFC03900B99FAF70EFC0B90694662
:105A7000898A8805800DFAF743FD35490290FAF7C7
:105A80005CFC03900A99FAF7FFFB0A906946088AC2
:105A9000FAF741FD2F490190FAF74FFC2E49029089
:105AA000FAF7F2FB03900999FAF7EEFB099002204E
:105AB000FBF750F87F1CAF4288DB2846FAF72BFD36
:105AC000074639463046FAF775FC06462846FAF787
:105AD00022FD074639460C98FAF76CFC0C902846D4
